{
  "_format": "hh-sol-artifact-1",
  "contractName": "KakuseiNFT",
  "sourceName": "contracts/nft.sol",
  "abi": [
    {
      "inputs": [
        {
          "internalType": "address",
          "name": "initialOwner",
          "type": "address"
        }
      ],
      "stateMutability": "nonpayable",
      "type": "constructor"
    },
    {
      "inputs": [],
      "name": "ERC721EnumerableForbiddenBatchMint",
      "type": "error"
    },
    {
      "inputs": [
        {
          "internalType": "address",
          "name": "sender",
          "type": "address"
        },
        {
          "internalType": "uint256",
          "name": "tokenId",
          "type": "uint256"
        },
        {
          "internalType": "address",
          "name": "owner",
          "type": "address"
        }
      ],
      "name": "ERC721IncorrectOwner",
      "type": "error"
    },
    {
      "inputs": [
        {
          "internalType": "address",
          "name": "operator",
          "type": "address"
        },
        {
          "internalType": "uint256",
          "name": "tokenId",
          "type": "uint256"
        }
      ],
      "name": "ERC721InsufficientApproval",
      "type": "error"
    },
    {
      "inputs": [
        {
          "internalType": "address",
          "name": "approver",
          "type": "address"
        }
      ],
      "name": "ERC721InvalidApprover",
      "type": "error"
    },
    {
      "inputs": [
        {
          "internalType": "address",
          "name": "operator",
          "type": "address"
        }
      ],
      "name": "ERC721InvalidOperator",
      "type": "error"
    },
    {
      "inputs": [
        {
          "internalType": "address",
          "name": "owner",
          "type": "address"
        }
      ],
      "name": "ERC721InvalidOwner",
      "type": "error"
    },
    {
      "inputs": [
        {
          "internalType": "address",
          "name": "receiver",
          "type": "address"
        }
      ],
      "name": "ERC721InvalidReceiver",
      "type": "error"
    },
    {
      "inputs": [
        {
          "internalType": "address",
          "name": "sender",
          "type": "address"
        }
      ],
      "name": "ERC721InvalidSender",
      "type": "error"
    },
    {
      "inputs": [
        {
          "internalType": "uint256",
          "name": "tokenId",
          "type": "uint256"
        }
      ],
      "name": "ERC721NonexistentToken",
      "type": "error"
    },
    {
      "inputs": [
        {
          "internalType": "address",
          "name": "owner",
          "type": "address"
        },
        {
          "internalType": "uint256",
          "name": "index",
          "type": "uint256"
        }
      ],
      "name": "ERC721OutOfBoundsIndex",
      "type": "error"
    },
    {
      "inputs": [
        {
          "internalType": "address",
          "name": "owner",
          "type": "address"
        }
      ],
      "name": "OwnableInvalidOwner",
      "type": "error"
    },
    {
      "inputs": [
        {
          "internalType": "address",
          "name": "account",
          "type": "address"
        }
      ],
      "name": "OwnableUnauthorizedAccount",
      "type": "error"
    },
    {
      "anonymous": false,
      "inputs": [
        {
          "indexed": true,
          "internalType": "address",
          "name": "owner",
          "type": "address"
        },
        {
          "indexed": true,
          "internalType": "address",
          "name": "approved",
          "type": "address"
        },
        {
          "indexed": true,
          "internalType": "uint256",
          "name": "tokenId",
          "type": "uint256"
        }
      ],
      "name": "Approval",
      "type": "event"
    },
    {
      "anonymous": false,
      "inputs": [
        {
          "indexed": true,
          "internalType": "address",
          "name": "owner",
          "type": "address"
        },
        {
          "indexed": true,
          "internalType": "address",
          "name": "operator",
          "type": "address"
        },
        {
          "indexed": false,
          "internalType": "bool",
          "name": "approved",
          "type": "bool"
        }
      ],
      "name": "ApprovalForAll",
      "type": "event"
    },
    {
      "anonymous": false,
      "inputs": [
        {
          "indexed": false,
          "internalType": "uint256",
          "name": "_fromTokenId",
          "type": "uint256"
        },
        {
          "indexed": false,
          "internalType": "uint256",
          "name": "_toTokenId",
          "type": "uint256"
        }
      ],
      "name": "BatchMetadataUpdate",
      "type": "event"
    },
    {
      "anonymous": false,
      "inputs": [
        {
          "indexed": false,
          "internalType": "uint256",
          "name": "_tokenId",
          "type": "uint256"
        }
      ],
      "name": "MetadataUpdate",
      "type": "event"
    },
    {
      "anonymous": false,
      "inputs": [
        {
          "indexed": true,
          "internalType": "address",
          "name": "previousOwner",
          "type": "address"
        },
        {
          "indexed": true,
          "internalType": "address",
          "name": "newOwner",
          "type": "address"
        }
      ],
      "name": "OwnershipTransferred",
      "type": "event"
    },
    {
      "anonymous": false,
      "inputs": [
        {
          "indexed": true,
          "internalType": "address",
          "name": "from",
          "type": "address"
        },
        {
          "indexed": true,
          "internalType": "address",
          "name": "to",
          "type": "address"
        },
        {
          "indexed": true,
          "internalType": "uint256",
          "name": "tokenId",
          "type": "uint256"
        }
      ],
      "name": "Transfer",
      "type": "event"
    },
    {
      "inputs": [
        {
          "internalType": "address",
          "name": "to",
          "type": "address"
        },
        {
          "internalType": "uint256",
          "name": "tokenId",
          "type": "uint256"
        }
      ],
      "name": "approve",
      "outputs": [],
      "stateMutability": "nonpayable",
      "type": "function"
    },
    {
      "inputs": [
        {
          "internalType": "address",
          "name": "owner",
          "type": "address"
        }
      ],
      "name": "balanceOf",
      "outputs": [
        {
          "internalType": "uint256",
          "name": "",
          "type": "uint256"
        }
      ],
      "stateMutability": "view",
      "type": "function"
    },
    {
      "inputs": [
        {
          "internalType": "uint256",
          "name": "tokenId",
          "type": "uint256"
        }
      ],
      "name": "getApproved",
      "outputs": [
        {
          "internalType": "address",
          "name": "",
          "type": "address"
        }
      ],
      "stateMutability": "view",
      "type": "function"
    },
    {
      "inputs": [
        {
          "internalType": "address",
          "name": "owner",
          "type": "address"
        },
        {
          "internalType": "address",
          "name": "operator",
          "type": "address"
        }
      ],
      "name": "isApprovedForAll",
      "outputs": [
        {
          "internalType": "bool",
          "name": "",
          "type": "bool"
        }
      ],
      "stateMutability": "view",
      "type": "function"
    },
    {
      "inputs": [],
      "name": "name",
      "outputs": [
        {
          "internalType": "string",
          "name": "",
          "type": "string"
        }
      ],
      "stateMutability": "view",
      "type": "function"
    },
    {
      "inputs": [],
      "name": "owner",
      "outputs": [
        {
          "internalType": "address",
          "name": "",
          "type": "address"
        }
      ],
      "stateMutability": "view",
      "type": "function"
    },
    {
      "inputs": [
        {
          "internalType": "uint256",
          "name": "tokenId",
          "type": "uint256"
        }
      ],
      "name": "ownerOf",
      "outputs": [
        {
          "internalType": "address",
          "name": "",
          "type": "address"
        }
      ],
      "stateMutability": "view",
      "type": "function"
    },
    {
      "inputs": [],
      "name": "renounceOwnership",
      "outputs": [],
      "stateMutability": "nonpayable",
      "type": "function"
    },
    {
      "inputs": [
        {
          "internalType": "address",
          "name": "to",
          "type": "address"
        }
      ],
      "name": "safeMint",
      "outputs": [
        {
          "internalType": "uint256",
          "name": "",
          "type": "uint256"
        }
      ],
      "stateMutability": "nonpayable",
      "type": "function"
    },
    {
      "inputs": [
        {
          "internalType": "address",
          "name": "from",
          "type": "address"
        },
        {
          "internalType": "address",
          "name": "to",
          "type": "address"
        },
        {
          "internalType": "uint256",
          "name": "tokenId",
          "type": "uint256"
        }
      ],
      "name": "safeTransferFrom",
      "outputs": [],
      "stateMutability": "nonpayable",
      "type": "function"
    },
    {
      "inputs": [
        {
          "internalType": "address",
          "name": "from",
          "type": "address"
        },
        {
          "internalType": "address",
          "name": "to",
          "type": "address"
        },
        {
          "internalType": "uint256",
          "name": "tokenId",
          "type": "uint256"
        },
        {
          "internalType": "bytes",
          "name": "data",
          "type": "bytes"
        }
      ],
      "name": "safeTransferFrom",
      "outputs": [],
      "stateMutability": "nonpayable",
      "type": "function"
    },
    {
      "inputs": [
        {
          "internalType": "address",
          "name": "operator",
          "type": "address"
        },
        {
          "internalType": "bool",
          "name": "approved",
          "type": "bool"
        }
      ],
      "name": "setApprovalForAll",
      "outputs": [],
      "stateMutability": "nonpayable",
      "type": "function"
    },
    {
      "inputs": [
        {
          "internalType": "string",
          "name": "newBaseUri",
          "type": "string"
        }
      ],
      "name": "setBaseUri",
      "outputs": [],
      "stateMutability": "nonpayable",
      "type": "function"
    },
    {
      "inputs": [
        {
          "internalType": "bytes4",
          "name": "interfaceId",
          "type": "bytes4"
        }
      ],
      "name": "supportsInterface",
      "outputs": [
        {
          "internalType": "bool",
          "name": "",
          "type": "bool"
        }
      ],
      "stateMutability": "view",
      "type": "function"
    },
    {
      "inputs": [],
      "name": "symbol",
      "outputs": [
        {
          "internalType": "string",
          "name": "",
          "type": "string"
        }
      ],
      "stateMutability": "view",
      "type": "function"
    },
    {
      "inputs": [
        {
          "internalType": "uint256",
          "name": "index",
          "type": "uint256"
        }
      ],
      "name": "tokenByIndex",
      "outputs": [
        {
          "internalType": "uint256",
          "name": "",
          "type": "uint256"
        }
      ],
      "stateMutability": "view",
      "type": "function"
    },
    {
      "inputs": [
        {
          "internalType": "address",
          "name": "owner",
          "type": "address"
        },
        {
          "internalType": "uint256",
          "name": "index",
          "type": "uint256"
        }
      ],
      "name": "tokenOfOwnerByIndex",
      "outputs": [
        {
          "internalType": "uint256",
          "name": "",
          "type": "uint256"
        }
      ],
      "stateMutability": "view",
      "type": "function"
    },
    {
      "inputs": [
        {
          "internalType": "uint256",
          "name": "tokenId",
          "type": "uint256"
        }
      ],
      "name": "tokenURI",
      "outputs": [
        {
          "internalType": "string",
          "name": "",
          "type": "string"
        }
      ],
      "stateMutability": "view",
      "type": "function"
    },
    {
      "inputs": [],
      "name": "totalSupply",
      "outputs": [
        {
          "internalType": "uint256",
          "name": "",
          "type": "uint256"
        }
      ],
      "stateMutability": "view",
      "type": "function"
    },
    {
      "inputs": [
        {
          "internalType": "address",
          "name": "from",
          "type": "address"
        },
        {
          "internalType": "address",
          "name": "to",
          "type": "address"
        },
        {
          "internalType": "uint256",
          "name": "tokenId",
          "type": "uint256"
        }
      ],
      "name": "transferFrom",
      "outputs": [],
      "stateMutability": "nonpayable",
      "type": "function"
    },
    {
      "inputs": [
        {
          "internalType": "address",
          "name": "newOwner",
          "type": "address"
        }
      ],
      "name": "transferOwnership",
      "outputs": [],
      "stateMutability": "nonpayable",
      "type": "function"
    }
  ],
  "bytecode": "0x608060405234801561001057600080fd5b506040516133553803806133558339818101604052810190610032919061027a565b806040518060400160405280600a81526020017f4b616b757365694e4654000000000000000000000000000000000000000000008152506040518060400160405280600681526020017f4b4b534e4654000000000000000000000000000000000000000000000000000081525081600090816100ae91906104f7565b5080600190816100be91906104f7565b505050600073ffffffffffffffffffffffffffffffffffffffff168173ffffffffffffffffffffffffffffffffffffffff16036101335760006040517f1e4fbdf700000000000000000000000000000000000000000000000000000000815260040161012a91906105d8565b60405180910390fd5b6101428161015160201b60201c565b506000600c81905550506105f3565b6000600b60009054906101000a900473ffffffffffffffffffffffffffffffffffffffff16905081600b60006101000a81548173ffffffffffffffffffffffffffffffffffffffff021916908373ffffffffffffffffffffffffffffffffffffffff1602179055508173ffffffffffffffffffffffffffffffffffffffff168173ffffffffffffffffffffffffffffffffffffffff167f8be0079c531659141344cd1fd0a4f28419497f9722a3daafe3b4186f6b6457e060405160405180910390a35050565b600080fd5b600073ffffffffffffffffffffffffffffffffffffffff82169050919050565b60006102478261021c565b9050919050565b6102578161023c565b811461026257600080fd5b50565b6000815190506102748161024e565b92915050565b6000602082840312156102905761028f610217565b5b600061029e84828501610265565b91505092915050565b600081519050919050565b7f4e487b7100000000000000000000000000000000000000000000000000000000600052604160045260246000fd5b7f4e487b7100000000000000000000000000000000000000000000000000000000600052602260045260246000fd5b6000600282049050600182168061032857607f821691505b60208210810361033b5761033a6102e1565b5b50919050565b60008190508160005260206000209050919050565b60006020601f8301049050919050565b600082821b905092915050565b6000600883026103a37fffffffffffffffffffffffffffffffffffffffffffffffffffffffffffffffff82610366565b6103ad8683610366565b95508019841693508086168417925050509392505050565b6000819050919050565b6000819050919050565b60006103f46103ef6103ea846103c5565b6103cf565b6103c5565b9050919050565b6000819050919050565b61040e836103d9565b61042261041a826103fb565b848454610373565b825550505050565b600090565b61043761042a565b610442818484610405565b505050565b5b818110156104665761045b60008261042f565b600181019050610448565b5050565b601f8211156104ab5761047c81610341565b61048584610356565b81016020851015610494578190505b6104a86104a085610356565b830182610447565b50505b505050565b600082821c905092915050565b60006104ce600019846008026104b0565b1980831691505092915050565b60006104e783836104bd565b9150826002028217905092915050565b610500826102a7565b67ffffffffffffffff811115610519576105186102b2565b5b6105238254610310565b61052e82828561046a565b600060209050601f831160018114610561576000841561054f578287015190505b61055985826104db565b8655506105c1565b601f19841661056f86610341565b60005b8281101561059757848901518255600182019150602085019450602081019050610572565b868310156105b457848901516105b0601f8916826104bd565b8355505b6001600288020188555050505b505050505050565b6105d28161023c565b82525050565b60006020820190506105ed60008301846105c9565b92915050565b612d53806106026000396000f3fe608060405234801561001057600080fd5b50600436106101375760003560e01c80636352211e116100b8578063a0bcfc7f1161007c578063a0bcfc7f14610362578063a22cb4651461037e578063b88d4fde1461039a578063c87b56dd146103b6578063e985e9c5146103e6578063f2fde38b1461041657610137565b80636352211e146102bc57806370a08231146102ec578063715018a61461031c5780638da5cb5b1461032657806395d89b411461034457610137565b806323b872dd116100ff57806323b872dd146101f45780632f745c591461021057806340d097c31461024057806342842e0e146102705780634f6ccce71461028c57610137565b806301ffc9a71461013c57806306fdde031461016c578063081812fc1461018a578063095ea7b3146101ba57806318160ddd146101d6575b600080fd5b61015660048036038101906101519190612160565b610432565b60405161016391906121a8565b60405180910390f35b610174610444565b6040516101819190612253565b60405180910390f35b6101a4600480360381019061019f91906122ab565b6104d6565b6040516101b19190612319565b60405180910390f35b6101d460048036038101906101cf9190612360565b6104f2565b005b6101de610508565b6040516101eb91906123af565b60405180910390f35b61020e600480360381019061020991906123ca565b610515565b005b61022a60048036038101906102259190612360565b610617565b60405161023791906123af565b60405180910390f35b61025a6004803603810190610255919061241d565b6106c0565b60405161026791906123af565b60405180910390f35b61028a600480360381019061028591906123ca565b6106fc565b005b6102a660048036038101906102a191906122ab565b61071c565b6040516102b391906123af565b60405180910390f35b6102d660048036038101906102d191906122ab565b610792565b6040516102e39190612319565b60405180910390f35b6103066004803603810190610301919061241d565b6107a4565b60405161031391906123af565b60405180910390f35b61032461085e565b005b61032e610872565b60405161033b9190612319565b60405180910390f35b61034c61089c565b6040516103599190612253565b60405180910390f35b61037c600480360381019061037791906124af565b61092e565b005b61039860048036038101906103939190612528565b61094c565b005b6103b460048036038101906103af9190612698565b610962565b005b6103d060048036038101906103cb91906122ab565b610987565b6040516103dd9190612253565b60405180910390f35b61040060048036038101906103fb919061271b565b610999565b60405161040d91906121a8565b60405180910390f35b610430600480360381019061042b919061241d565b610a2d565b005b600061043d82610ab3565b9050919050565b6060600080546104539061278a565b80601f016020809104026020016040519081016040528092919081815260200182805461047f9061278a565b80156104cc5780601f106104a1576101008083540402835291602001916104cc565b820191906000526020600020905b8154815290600101906020018083116104af57829003601f168201915b5050505050905090565b60006104e182610b14565b506104eb82610b9c565b9050919050565b61050482826104ff610bd9565b610be1565b5050565b6000600880549050905090565b600073ffffffffffffffffffffffffffffffffffffffff168273ffffffffffffffffffffffffffffffffffffffff16036105875760006040517f64a0ae9200000000000000000000000000000000000000000000000000000000815260040161057e9190612319565b60405180910390fd5b600061059b8383610596610bd9565b610bf3565b90508373ffffffffffffffffffffffffffffffffffffffff168173ffffffffffffffffffffffffffffffffffffffff1614610611578382826040517f64283d7b000000000000000000000000000000000000000000000000000000008152600401610608939291906127bb565b60405180910390fd5b50505050565b6000610622836107a4565b82106106675782826040517fa57d13dc00000000000000000000000000000000000000000000000000000000815260040161065e9291906127f2565b60405180910390fd5b600660008473ffffffffffffffffffffffffffffffffffffffff1673ffffffffffffffffffffffffffffffffffffffff168152602001908152602001600020600083815260200190815260200160002054905092915050565b60006106ca610c09565b6000600c549050600c60008154809291906106e49061284a565b91905055506106f38382610c90565b80915050919050565b61071783838360405180602001604052806000815250610962565b505050565b6000610726610508565b821061076c576000826040517fa57d13dc0000000000000000000000000000000000000000000000000000000081526004016107639291906127f2565b60405180910390fd5b600882815481106107805761077f612892565b5b90600052602060002001549050919050565b600061079d82610b14565b9050919050565b60008073ffffffffffffffffffffffffffffffffffffffff168273ffffffffffffffffffffffffffffffffffffffff16036108175760006040517f89c62b6400000000000000000000000000000000000000000000000000000000815260040161080e9190612319565b60405180910390fd5b600360008373ffffffffffffffffffffffffffffffffffffffff1673ffffffffffffffffffffffffffffffffffffffff168152602001908152602001600020549050919050565b610866610c09565b6108706000610cae565b565b6000600b60009054906101000a900473ffffffffffffffffffffffffffffffffffffffff16905090565b6060600180546108ab9061278a565b80601f01602080910402602001604051908101604052809291908181526020018280546108d79061278a565b80156109245780601f106108f957610100808354040283529160200191610924565b820191906000526020600020905b81548152906001019060200180831161090757829003601f168201915b5050505050905090565b610936610c09565b8181600d9182610947929190612a78565b505050565b61095e610957610bd9565b8383610d74565b5050565b61096d848484610515565b610981610978610bd9565b85858585610ee3565b50505050565b606061099282611094565b9050919050565b6000600560008473ffffffffffffffffffffffffffffffffffffffff1673ffffffffffffffffffffffffffffffffffffffff16815260200190815260200160002060008373ffffffffffffffffffffffffffffffffffffffff1673ffffffffffffffffffffffffffffffffffffffff16815260200190815260200160002060009054906101000a900460ff16905092915050565b610a35610c09565b600073ffffffffffffffffffffffffffffffffffffffff168173ffffffffffffffffffffffffffffffffffffffff1603610aa75760006040517f1e4fbdf7000000000000000000000000000000000000000000000000000000008152600401610a9e9190612319565b60405180910390fd5b610ab081610cae565b50565b6000634906490660e01b7bffffffffffffffffffffffffffffffffffffffffffffffffffffffff1916827bffffffffffffffffffffffffffffffffffffffffffffffffffffffff19161480610b0d5750610b0c826111a7565b5b9050919050565b600080610b2083611221565b9050600073ffffffffffffffffffffffffffffffffffffffff168173ffffffffffffffffffffffffffffffffffffffff1603610b9357826040517f7e273289000000000000000000000000000000000000000000000000000000008152600401610b8a91906123af565b60405180910390fd5b80915050919050565b60006004600083815260200190815260200160002060009054906101000a900473ffffffffffffffffffffffffffffffffffffffff169050919050565b600033905090565b610bee838383600161125e565b505050565b6000610c00848484611423565b90509392505050565b610c11610bd9565b73ffffffffffffffffffffffffffffffffffffffff16610c2f610872565b73ffffffffffffffffffffffffffffffffffffffff1614610c8e57610c52610bd9565b6040517f118cdaa7000000000000000000000000000000000000000000000000000000008152600401610c859190612319565b60405180910390fd5b565b610caa828260405180602001604052806000815250611540565b5050565b6000600b60009054906101000a900473ffffffffffffffffffffffffffffffffffffffff16905081600b60006101000a81548173ffffffffffffffffffffffffffffffffffffffff021916908373ffffffffffffffffffffffffffffffffffffffff1602179055508173ffffffffffffffffffffffffffffffffffffffff168173ffffffffffffffffffffffffffffffffffffffff167f8be0079c531659141344cd1fd0a4f28419497f9722a3daafe3b4186f6b6457e060405160405180910390a35050565b600073ffffffffffffffffffffffffffffffffffffffff168273ffffffffffffffffffffffffffffffffffffffff1603610de557816040517f5b08ba18000000000000000000000000000000000000000000000000000000008152600401610ddc9190612319565b60405180910390fd5b80600560008573ffffffffffffffffffffffffffffffffffffffff1673ffffffffffffffffffffffffffffffffffffffff16815260200190815260200160002060008473ffffffffffffffffffffffffffffffffffffffff1673ffffffffffffffffffffffffffffffffffffffff16815260200190815260200160002060006101000a81548160ff0219169083151502179055508173ffffffffffffffffffffffffffffffffffffffff168373ffffffffffffffffffffffffffffffffffffffff167f17307eab39ab6107e8899845ad3d59bd9653f200f220920489ca2b5937696c3183604051610ed691906121a8565b60405180910390a3505050565b60008373ffffffffffffffffffffffffffffffffffffffff163b111561108d578273ffffffffffffffffffffffffffffffffffffffff1663150b7a02868685856040518563ffffffff1660e01b8152600401610f429493929190612b9d565b6020604051808303816000875af1925050508015610f7e57506040513d601f19601f82011682018060405250810190610f7b9190612bfe565b60015b611002573d8060008114610fae576040519150601f19603f3d011682016040523d82523d6000602084013e610fb3565b606091505b506000815103610ffa57836040517f64a0ae92000000000000000000000000000000000000000000000000000000008152600401610ff19190612319565b60405180910390fd5b805181602001fd5b63150b7a0260e01b7bffffffffffffffffffffffffffffffffffffffffffffffffffffffff1916817bffffffffffffffffffffffffffffffffffffffffffffffffffffffff19161461108b57836040517f64a0ae920000000000000000000000000000000000000000000000000000000081526004016110829190612319565b60405180910390fd5b505b5050505050565b606061109f82610b14565b506000600a600084815260200190815260200160002080546110c09061278a565b80601f01602080910402602001604051908101604052809291908181526020018280546110ec9061278a565b80156111395780601f1061110e57610100808354040283529160200191611139565b820191906000526020600020905b81548152906001019060200180831161111c57829003601f168201915b50505050509050600061114a611564565b9050600081510361115f5781925050506111a2565b60008251111561119457808260405160200161117c929190612c67565b604051602081830303815290604052925050506111a2565b61119d846115f6565b925050505b919050565b60007f780e9d63000000000000000000000000000000000000000000000000000000007bffffffffffffffffffffffffffffffffffffffffffffffffffffffff1916827bffffffffffffffffffffffffffffffffffffffffffffffffffffffff1916148061121a57506112198261165f565b5b9050919050565b60006002600083815260200190815260200160002060009054906101000a900473ffffffffffffffffffffffffffffffffffffffff169050919050565b80806112975750600073ffffffffffffffffffffffffffffffffffffffff168273ffffffffffffffffffffffffffffffffffffffff1614155b156113cb5760006112a784610b14565b9050600073ffffffffffffffffffffffffffffffffffffffff168373ffffffffffffffffffffffffffffffffffffffff161415801561131257508273ffffffffffffffffffffffffffffffffffffffff168173ffffffffffffffffffffffffffffffffffffffff1614155b801561132557506113238184610999565b155b1561136757826040517fa9fbf51f00000000000000000000000000000000000000000000000000000000815260040161135e9190612319565b60405180910390fd5b81156113c957838573ffffffffffffffffffffffffffffffffffffffff168273ffffffffffffffffffffffffffffffffffffffff167f8c5be1e5ebec7d5bd14f71427d1e84f3dd0314c0f7b2291e5b200ac8c7c3b92560405160405180910390a45b505b836004600085815260200190815260200160002060006101000a81548173ffffffffffffffffffffffffffffffffffffffff021916908373ffffffffffffffffffffffffffffffffffffffff16021790555050505050565b600080611431858585611741565b9050600073ffffffffffffffffffffffffffffffffffffffff168173ffffffffffffffffffffffffffffffffffffffff1603611475576114708461195b565b6114b4565b8473ffffffffffffffffffffffffffffffffffffffff168173ffffffffffffffffffffffffffffffffffffffff16146114b3576114b281856119a4565b5b5b600073ffffffffffffffffffffffffffffffffffffffff168573ffffffffffffffffffffffffffffffffffffffff16036114f6576114f184611a8f565b611535565b8473ffffffffffffffffffffffffffffffffffffffff168173ffffffffffffffffffffffffffffffffffffffff1614611534576115338585611b60565b5b5b809150509392505050565b61154a8383611beb565b61155f611555610bd9565b6000858585610ee3565b505050565b6060600d80546115739061278a565b80601f016020809104026020016040519081016040528092919081815260200182805461159f9061278a565b80156115ec5780601f106115c1576101008083540402835291602001916115ec565b820191906000526020600020905b8154815290600101906020018083116115cf57829003601f168201915b5050505050905090565b606061160182610b14565b50600061160c611564565b9050600081511161162c5760405180602001604052806000815250611657565b8061163684611ce4565b604051602001611647929190612c67565b6040516020818303038152906040525b915050919050565b60007f80ac58cd000000000000000000000000000000000000000000000000000000007bffffffffffffffffffffffffffffffffffffffffffffffffffffffff1916827bffffffffffffffffffffffffffffffffffffffffffffffffffffffff1916148061172a57507f5b5e139f000000000000000000000000000000000000000000000000000000007bffffffffffffffffffffffffffffffffffffffffffffffffffffffff1916827bffffffffffffffffffffffffffffffffffffffffffffffffffffffff1916145b8061173a575061173982611db2565b5b9050919050565b60008061174d84611221565b9050600073ffffffffffffffffffffffffffffffffffffffff168373ffffffffffffffffffffffffffffffffffffffff161461178f5761178e818486611e1c565b5b600073ffffffffffffffffffffffffffffffffffffffff168173ffffffffffffffffffffffffffffffffffffffff1614611820576117d160008560008061125e565b6001600360008373ffffffffffffffffffffffffffffffffffffffff1673ffffffffffffffffffffffffffffffffffffffff168152602001908152602001600020600082825403925050819055505b600073ffffffffffffffffffffffffffffffffffffffff168573ffffffffffffffffffffffffffffffffffffffff16146118a3576001600360008773ffffffffffffffffffffffffffffffffffffffff1673ffffffffffffffffffffffffffffffffffffffff168152602001908152602001600020600082825401925050819055505b846002600086815260200190815260200160002060006101000a81548173ffffffffffffffffffffffffffffffffffffffff021916908373ffffffffffffffffffffffffffffffffffffffff160217905550838573ffffffffffffffffffffffffffffffffffffffff168273ffffffffffffffffffffffffffffffffffffffff167fddf252ad1be2c89b69c2b068fc378daa952ba7f163c4a11628f55a4df523b3ef60405160405180910390a4809150509392505050565b6008805490506009600083815260200190815260200160002081905550600881908060018154018082558091505060019003906000526020600020016000909190919091505550565b60006119af836107a4565b90506000600760008481526020019081526020016000205490506000600660008673ffffffffffffffffffffffffffffffffffffffff1673ffffffffffffffffffffffffffffffffffffffff1681526020019081526020016000209050828214611a5b5760008160008581526020019081526020016000205490508082600085815260200190815260200160002081905550826007600083815260200190815260200160002081905550505b6007600085815260200190815260200160002060009055806000848152602001908152602001600020600090555050505050565b60006001600880549050611aa39190612c8b565b9050600060096000848152602001908152602001600020549050600060088381548110611ad357611ad2612892565b5b906000526020600020015490508060088381548110611af557611af4612892565b5b906000526020600020018190555081600960008381526020019081526020016000208190555060096000858152602001908152602001600020600090556008805480611b4457611b43612cbf565b5b6001900381819060005260206000200160009055905550505050565b60006001611b6d846107a4565b611b779190612c8b565b905081600660008573ffffffffffffffffffffffffffffffffffffffff1673ffffffffffffffffffffffffffffffffffffffff168152602001908152602001600020600083815260200190815260200160002081905550806007600084815260200190815260200160002081905550505050565b600073ffffffffffffffffffffffffffffffffffffffff168273ffffffffffffffffffffffffffffffffffffffff1603611c5d5760006040517f64a0ae92000000000000000000000000000000000000000000000000000000008152600401611c549190612319565b60405180910390fd5b6000611c6b83836000610bf3565b9050600073ffffffffffffffffffffffffffffffffffffffff168173ffffffffffffffffffffffffffffffffffffffff1614611cdf5760006040517f73c6ac6e000000000000000000000000000000000000000000000000000000008152600401611cd69190612319565b60405180910390fd5b505050565b606060006001611cf384611ee0565b01905060008167ffffffffffffffff811115611d1257611d1161256d565b5b6040519080825280601f01601f191660200182016040528015611d445781602001600182028036833780820191505090505b509050600082602001820190505b600115611da7578080600190039150507f3031323334353637383961626364656600000000000000000000000000000000600a86061a8153600a8581611d9b57611d9a612cee565b5b04945060008503611d52575b819350505050919050565b60007f01ffc9a7000000000000000000000000000000000000000000000000000000007bffffffffffffffffffffffffffffffffffffffffffffffffffffffff1916827bffffffffffffffffffffffffffffffffffffffffffffffffffffffff1916149050919050565b611e27838383612033565b611edb57600073ffffffffffffffffffffffffffffffffffffffff168373ffffffffffffffffffffffffffffffffffffffff1603611e9c57806040517f7e273289000000000000000000000000000000000000000000000000000000008152600401611e9391906123af565b60405180910390fd5b81816040517f177e802f000000000000000000000000000000000000000000000000000000008152600401611ed29291906127f2565b60405180910390fd5b505050565b600080600090507a184f03e93ff9f4daa797ed6e38ed64bf6a1f0100000000000000008310611f3e577a184f03e93ff9f4daa797ed6e38ed64bf6a1f0100000000000000008381611f3457611f33612cee565b5b0492506040810190505b6d04ee2d6d415b85acef81000000008310611f7b576d04ee2d6d415b85acef81000000008381611f7157611f70612cee565b5b0492506020810190505b662386f26fc100008310611faa57662386f26fc100008381611fa057611f9f612cee565b5b0492506010810190505b6305f5e1008310611fd3576305f5e1008381611fc957611fc8612cee565b5b0492506008810190505b6127108310611ff8576127108381611fee57611fed612cee565b5b0492506004810190505b6064831061201b576064838161201157612010612cee565b5b0492506002810190505b600a831061202a576001810190505b80915050919050565b60008073ffffffffffffffffffffffffffffffffffffffff168373ffffffffffffffffffffffffffffffffffffffff16141580156120eb57508273ffffffffffffffffffffffffffffffffffffffff168473ffffffffffffffffffffffffffffffffffffffff1614806120ac57506120ab8484610999565b5b806120ea57508273ffffffffffffffffffffffffffffffffffffffff166120d283610b9c565b73ffffffffffffffffffffffffffffffffffffffff16145b5b90509392505050565b6000604051905090565b600080fd5b600080fd5b60007fffffffff0000000000000000000000000000000000000000000000000000000082169050919050565b61213d81612108565b811461214857600080fd5b50565b60008135905061215a81612134565b92915050565b600060208284031215612176576121756120fe565b5b60006121848482850161214b565b91505092915050565b60008115159050919050565b6121a28161218d565b82525050565b60006020820190506121bd6000830184612199565b92915050565b600081519050919050565b600082825260208201905092915050565b60005b838110156121fd5780820151818401526020810190506121e2565b60008484015250505050565b6000601f19601f8301169050919050565b6000612225826121c3565b61222f81856121ce565b935061223f8185602086016121df565b61224881612209565b840191505092915050565b6000602082019050818103600083015261226d818461221a565b905092915050565b6000819050919050565b61228881612275565b811461229357600080fd5b50565b6000813590506122a58161227f565b92915050565b6000602082840312156122c1576122c06120fe565b5b60006122cf84828501612296565b91505092915050565b600073ffffffffffffffffffffffffffffffffffffffff82169050919050565b6000612303826122d8565b9050919050565b612313816122f8565b82525050565b600060208201905061232e600083018461230a565b92915050565b61233d816122f8565b811461234857600080fd5b50565b60008135905061235a81612334565b92915050565b60008060408385031215612377576123766120fe565b5b60006123858582860161234b565b925050602061239685828601612296565b9150509250929050565b6123a981612275565b82525050565b60006020820190506123c460008301846123a0565b92915050565b6000806000606084860312156123e3576123e26120fe565b5b60006123f18682870161234b565b93505060206124028682870161234b565b925050604061241386828701612296565b9150509250925092565b600060208284031215612433576124326120fe565b5b60006124418482850161234b565b91505092915050565b600080fd5b600080fd5b600080fd5b60008083601f84011261246f5761246e61244a565b5b8235905067ffffffffffffffff81111561248c5761248b61244f565b5b6020830191508360018202830111156124a8576124a7612454565b5b9250929050565b600080602083850312156124c6576124c56120fe565b5b600083013567ffffffffffffffff8111156124e4576124e3612103565b5b6124f085828601612459565b92509250509250929050565b6125058161218d565b811461251057600080fd5b50565b600081359050612522816124fc565b92915050565b6000806040838503121561253f5761253e6120fe565b5b600061254d8582860161234b565b925050602061255e85828601612513565b9150509250929050565b600080fd5b7f4e487b7100000000000000000000000000000000000000000000000000000000600052604160045260246000fd5b6125a582612209565b810181811067ffffffffffffffff821117156125c4576125c361256d565b5b80604052505050565b60006125d76120f4565b90506125e3828261259c565b919050565b600067ffffffffffffffff8211156126035761260261256d565b5b61260c82612209565b9050602081019050919050565b82818337600083830152505050565b600061263b612636846125e8565b6125cd565b90508281526020810184848401111561265757612656612568565b5b612662848285612619565b509392505050565b600082601f83011261267f5761267e61244a565b5b813561268f848260208601612628565b91505092915050565b600080600080608085870312156126b2576126b16120fe565b5b60006126c08782880161234b565b94505060206126d18782880161234b565b93505060406126e287828801612296565b925050606085013567ffffffffffffffff81111561270357612702612103565b5b61270f8782880161266a565b91505092959194509250565b60008060408385031215612732576127316120fe565b5b60006127408582860161234b565b92505060206127518582860161234b565b9150509250929050565b7f4e487b7100000000000000000000000000000000000000000000000000000000600052602260045260246000fd5b600060028204905060018216806127a257607f821691505b6020821081036127b5576127b461275b565b5b50919050565b60006060820190506127d0600083018661230a565b6127dd60208301856123a0565b6127ea604083018461230a565b949350505050565b6000604082019050612807600083018561230a565b61281460208301846123a0565b9392505050565b7f4e487b7100000000000000000000000000000000000000000000000000000000600052601160045260246000fd5b600061285582612275565b91507fffffffffffffffffffffffffffffffffffffffffffffffffffffffffffffffff82036128875761288661281b565b5b600182019050919050565b7f4e487b7100000000000000000000000000000000000000000000000000000000600052603260045260246000fd5b600082905092915050565b60008190508160005260206000209050919050565b60006020601f8301049050919050565b600082821b905092915050565b60006008830261292e7fffffffffffffffffffffffffffffffffffffffffffffffffffffffffffffffff826128f1565b61293886836128f1565b95508019841693508086168417925050509392505050565b6000819050919050565b600061297561297061296b84612275565b612950565b612275565b9050919050565b6000819050919050565b61298f8361295a565b6129a361299b8261297c565b8484546128fe565b825550505050565b600090565b6129b86129ab565b6129c3818484612986565b505050565b5b818110156129e7576129dc6000826129b0565b6001810190506129c9565b5050565b601f821115612a2c576129fd816128cc565b612a06846128e1565b81016020851015612a15578190505b612a29612a21856128e1565b8301826129c8565b50505b505050565b600082821c905092915050565b6000612a4f60001984600802612a31565b1980831691505092915050565b6000612a688383612a3e565b9150826002028217905092915050565b612a8283836128c1565b67ffffffffffffffff811115612a9b57612a9a61256d565b5b612aa5825461278a565b612ab08282856129eb565b6000601f831160018114612adf5760008415612acd578287013590505b612ad78582612a5c565b865550612b3f565b601f198416612aed866128cc565b60005b82811015612b1557848901358255600182019150602085019450602081019050612af0565b86831015612b325784890135612b2e601f891682612a3e565b8355505b6001600288020188555050505b50505050505050565b600081519050919050565b600082825260208201905092915050565b6000612b6f82612b48565b612b798185612b53565b9350612b898185602086016121df565b612b9281612209565b840191505092915050565b6000608082019050612bb2600083018761230a565b612bbf602083018661230a565b612bcc60408301856123a0565b8181036060830152612bde8184612b64565b905095945050505050565b600081519050612bf881612134565b92915050565b600060208284031215612c1457612c136120fe565b5b6000612c2284828501612be9565b91505092915050565b600081905092915050565b6000612c41826121c3565b612c4b8185612c2b565b9350612c5b8185602086016121df565b80840191505092915050565b6000612c738285612c36565b9150612c7f8284612c36565b91508190509392505050565b6000612c9682612275565b9150612ca183612275565b9250828203905081811115612cb957612cb861281b565b5b92915050565b7f4e487b7100000000000000000000000000000000000000000000000000000000600052603160045260246000fd5b7f4e487b7100000000000000000000000000000000000000000000000000000000600052601260045260246000fdfea264697066735822122061c78530834dc629f18c4d99aa554f0d489479230e9a69921db7122354fa634c64736f6c634300081b0033",
  "linkReferences": {},
  "deployedLinkReferences": {}
}