{
  "_format": "hh-sol-artifact-1",
  "contractName": "KakuseiNFT",
  "sourceName": "contracts/nft.sol",
  "abi": [
    {
      "inputs": [
        {
          "internalType": "address",
          "name": "initialOwner",
          "type": "address"
        }
      ],
      "stateMutability": "nonpayable",
      "type": "constructor"
    },
    {
      "inputs": [
        {
          "internalType": "address",
          "name": "sender",
          "type": "address"
        },
        {
          "internalType": "uint256",
          "name": "tokenId",
          "type": "uint256"
        },
        {
          "internalType": "address",
          "name": "owner",
          "type": "address"
        }
      ],
      "name": "ERC721IncorrectOwner",
      "type": "error"
    },
    {
      "inputs": [
        {
          "internalType": "address",
          "name": "operator",
          "type": "address"
        },
        {
          "internalType": "uint256",
          "name": "tokenId",
          "type": "uint256"
        }
      ],
      "name": "ERC721InsufficientApproval",
      "type": "error"
    },
    {
      "inputs": [
        {
          "internalType": "address",
          "name": "approver",
          "type": "address"
        }
      ],
      "name": "ERC721InvalidApprover",
      "type": "error"
    },
    {
      "inputs": [
        {
          "internalType": "address",
          "name": "operator",
          "type": "address"
        }
      ],
      "name": "ERC721InvalidOperator",
      "type": "error"
    },
    {
      "inputs": [
        {
          "internalType": "address",
          "name": "owner",
          "type": "address"
        }
      ],
      "name": "ERC721InvalidOwner",
      "type": "error"
    },
    {
      "inputs": [
        {
          "internalType": "address",
          "name": "receiver",
          "type": "address"
        }
      ],
      "name": "ERC721InvalidReceiver",
      "type": "error"
    },
    {
      "inputs": [
        {
          "internalType": "address",
          "name": "sender",
          "type": "address"
        }
      ],
      "name": "ERC721InvalidSender",
      "type": "error"
    },
    {
      "inputs": [
        {
          "internalType": "uint256",
          "name": "tokenId",
          "type": "uint256"
        }
      ],
      "name": "ERC721NonexistentToken",
      "type": "error"
    },
    {
      "inputs": [
        {
          "internalType": "address",
          "name": "owner",
          "type": "address"
        }
      ],
      "name": "OwnableInvalidOwner",
      "type": "error"
    },
    {
      "inputs": [
        {
          "internalType": "address",
          "name": "account",
          "type": "address"
        }
      ],
      "name": "OwnableUnauthorizedAccount",
      "type": "error"
    },
    {
      "anonymous": false,
      "inputs": [
        {
          "indexed": true,
          "internalType": "address",
          "name": "owner",
          "type": "address"
        },
        {
          "indexed": true,
          "internalType": "address",
          "name": "approved",
          "type": "address"
        },
        {
          "indexed": true,
          "internalType": "uint256",
          "name": "tokenId",
          "type": "uint256"
        }
      ],
      "name": "Approval",
      "type": "event"
    },
    {
      "anonymous": false,
      "inputs": [
        {
          "indexed": true,
          "internalType": "address",
          "name": "owner",
          "type": "address"
        },
        {
          "indexed": true,
          "internalType": "address",
          "name": "operator",
          "type": "address"
        },
        {
          "indexed": false,
          "internalType": "bool",
          "name": "approved",
          "type": "bool"
        }
      ],
      "name": "ApprovalForAll",
      "type": "event"
    },
    {
      "anonymous": false,
      "inputs": [
        {
          "indexed": false,
          "internalType": "uint256",
          "name": "_fromTokenId",
          "type": "uint256"
        },
        {
          "indexed": false,
          "internalType": "uint256",
          "name": "_toTokenId",
          "type": "uint256"
        }
      ],
      "name": "BatchMetadataUpdate",
      "type": "event"
    },
    {
      "anonymous": false,
      "inputs": [
        {
          "indexed": false,
          "internalType": "uint256",
          "name": "_tokenId",
          "type": "uint256"
        }
      ],
      "name": "MetadataUpdate",
      "type": "event"
    },
    {
      "anonymous": false,
      "inputs": [
        {
          "indexed": true,
          "internalType": "address",
          "name": "previousOwner",
          "type": "address"
        },
        {
          "indexed": true,
          "internalType": "address",
          "name": "newOwner",
          "type": "address"
        }
      ],
      "name": "OwnershipTransferred",
      "type": "event"
    },
    {
      "anonymous": false,
      "inputs": [
        {
          "indexed": true,
          "internalType": "address",
          "name": "from",
          "type": "address"
        },
        {
          "indexed": true,
          "internalType": "address",
          "name": "to",
          "type": "address"
        },
        {
          "indexed": true,
          "internalType": "uint256",
          "name": "tokenId",
          "type": "uint256"
        }
      ],
      "name": "Transfer",
      "type": "event"
    },
    {
      "inputs": [
        {
          "internalType": "address",
          "name": "to",
          "type": "address"
        },
        {
          "internalType": "uint256",
          "name": "tokenId",
          "type": "uint256"
        }
      ],
      "name": "approve",
      "outputs": [],
      "stateMutability": "nonpayable",
      "type": "function"
    },
    {
      "inputs": [
        {
          "internalType": "address",
          "name": "owner",
          "type": "address"
        }
      ],
      "name": "balanceOf",
      "outputs": [
        {
          "internalType": "uint256",
          "name": "",
          "type": "uint256"
        }
      ],
      "stateMutability": "view",
      "type": "function"
    },
    {
      "inputs": [
        {
          "internalType": "uint256",
          "name": "tokenId",
          "type": "uint256"
        }
      ],
      "name": "getApproved",
      "outputs": [
        {
          "internalType": "address",
          "name": "",
          "type": "address"
        }
      ],
      "stateMutability": "view",
      "type": "function"
    },
    {
      "inputs": [
        {
          "internalType": "address",
          "name": "owner",
          "type": "address"
        },
        {
          "internalType": "address",
          "name": "operator",
          "type": "address"
        }
      ],
      "name": "isApprovedForAll",
      "outputs": [
        {
          "internalType": "bool",
          "name": "",
          "type": "bool"
        }
      ],
      "stateMutability": "view",
      "type": "function"
    },
    {
      "inputs": [],
      "name": "name",
      "outputs": [
        {
          "internalType": "string",
          "name": "",
          "type": "string"
        }
      ],
      "stateMutability": "view",
      "type": "function"
    },
    {
      "inputs": [],
      "name": "owner",
      "outputs": [
        {
          "internalType": "address",
          "name": "",
          "type": "address"
        }
      ],
      "stateMutability": "view",
      "type": "function"
    },
    {
      "inputs": [
        {
          "internalType": "uint256",
          "name": "tokenId",
          "type": "uint256"
        }
      ],
      "name": "ownerOf",
      "outputs": [
        {
          "internalType": "address",
          "name": "",
          "type": "address"
        }
      ],
      "stateMutability": "view",
      "type": "function"
    },
    {
      "inputs": [],
      "name": "renounceOwnership",
      "outputs": [],
      "stateMutability": "nonpayable",
      "type": "function"
    },
    {
      "inputs": [
        {
          "internalType": "address",
          "name": "to",
          "type": "address"
        }
      ],
      "name": "safeMint",
      "outputs": [
        {
          "internalType": "uint256",
          "name": "",
          "type": "uint256"
        }
      ],
      "stateMutability": "nonpayable",
      "type": "function"
    },
    {
      "inputs": [
        {
          "internalType": "address",
          "name": "from",
          "type": "address"
        },
        {
          "internalType": "address",
          "name": "to",
          "type": "address"
        },
        {
          "internalType": "uint256",
          "name": "tokenId",
          "type": "uint256"
        }
      ],
      "name": "safeTransferFrom",
      "outputs": [],
      "stateMutability": "nonpayable",
      "type": "function"
    },
    {
      "inputs": [
        {
          "internalType": "address",
          "name": "from",
          "type": "address"
        },
        {
          "internalType": "address",
          "name": "to",
          "type": "address"
        },
        {
          "internalType": "uint256",
          "name": "tokenId",
          "type": "uint256"
        },
        {
          "internalType": "bytes",
          "name": "data",
          "type": "bytes"
        }
      ],
      "name": "safeTransferFrom",
      "outputs": [],
      "stateMutability": "nonpayable",
      "type": "function"
    },
    {
      "inputs": [
        {
          "internalType": "address",
          "name": "operator",
          "type": "address"
        },
        {
          "internalType": "bool",
          "name": "approved",
          "type": "bool"
        }
      ],
      "name": "setApprovalForAll",
      "outputs": [],
      "stateMutability": "nonpayable",
      "type": "function"
    },
    {
      "inputs": [
        {
          "internalType": "string",
          "name": "newBaseUri",
          "type": "string"
        }
      ],
      "name": "setBaseUri",
      "outputs": [],
      "stateMutability": "nonpayable",
      "type": "function"
    },
    {
      "inputs": [
        {
          "internalType": "bytes4",
          "name": "interfaceId",
          "type": "bytes4"
        }
      ],
      "name": "supportsInterface",
      "outputs": [
        {
          "internalType": "bool",
          "name": "",
          "type": "bool"
        }
      ],
      "stateMutability": "view",
      "type": "function"
    },
    {
      "inputs": [],
      "name": "symbol",
      "outputs": [
        {
          "internalType": "string",
          "name": "",
          "type": "string"
        }
      ],
      "stateMutability": "view",
      "type": "function"
    },
    {
      "inputs": [
        {
          "internalType": "uint256",
          "name": "tokenId",
          "type": "uint256"
        }
      ],
      "name": "tokenURI",
      "outputs": [
        {
          "internalType": "string",
          "name": "",
          "type": "string"
        }
      ],
      "stateMutability": "view",
      "type": "function"
    },
    {
      "inputs": [
        {
          "internalType": "address",
          "name": "from",
          "type": "address"
        },
        {
          "internalType": "address",
          "name": "to",
          "type": "address"
        },
        {
          "internalType": "uint256",
          "name": "tokenId",
          "type": "uint256"
        }
      ],
      "name": "transferFrom",
      "outputs": [],
      "stateMutability": "nonpayable",
      "type": "function"
    },
    {
      "inputs": [
        {
          "internalType": "address",
          "name": "newOwner",
          "type": "address"
        }
      ],
      "name": "transferOwnership",
      "outputs": [],
      "stateMutability": "nonpayable",
      "type": "function"
    }
  ],
  "bytecode": "0x608060405234801561001057600080fd5b50604051612cbb380380612cbb8339818101604052810190610032919061027a565b806040518060400160405280600a81526020017f4b616b757365694e4654000000000000000000000000000000000000000000008152506040518060400160405280600681526020017f4b4b534e4654000000000000000000000000000000000000000000000000000081525081600090816100ae91906104f7565b5080600190816100be91906104f7565b505050600073ffffffffffffffffffffffffffffffffffffffff168173ffffffffffffffffffffffffffffffffffffffff16036101335760006040517f1e4fbdf700000000000000000000000000000000000000000000000000000000815260040161012a91906105d8565b60405180910390fd5b6101428161015160201b60201c565b506000600881905550506105f3565b6000600760009054906101000a900473ffffffffffffffffffffffffffffffffffffffff16905081600760006101000a81548173ffffffffffffffffffffffffffffffffffffffff021916908373ffffffffffffffffffffffffffffffffffffffff1602179055508173ffffffffffffffffffffffffffffffffffffffff168173ffffffffffffffffffffffffffffffffffffffff167f8be0079c531659141344cd1fd0a4f28419497f9722a3daafe3b4186f6b6457e060405160405180910390a35050565b600080fd5b600073ffffffffffffffffffffffffffffffffffffffff82169050919050565b60006102478261021c565b9050919050565b6102578161023c565b811461026257600080fd5b50565b6000815190506102748161024e565b92915050565b6000602082840312156102905761028f610217565b5b600061029e84828501610265565b91505092915050565b600081519050919050565b7f4e487b7100000000000000000000000000000000000000000000000000000000600052604160045260246000fd5b7f4e487b7100000000000000000000000000000000000000000000000000000000600052602260045260246000fd5b6000600282049050600182168061032857607f821691505b60208210810361033b5761033a6102e1565b5b50919050565b60008190508160005260206000209050919050565b60006020601f8301049050919050565b600082821b905092915050565b6000600883026103a37fffffffffffffffffffffffffffffffffffffffffffffffffffffffffffffffff82610366565b6103ad8683610366565b95508019841693508086168417925050509392505050565b6000819050919050565b6000819050919050565b60006103f46103ef6103ea846103c5565b6103cf565b6103c5565b9050919050565b6000819050919050565b61040e836103d9565b61042261041a826103fb565b848454610373565b825550505050565b600090565b61043761042a565b610442818484610405565b505050565b5b818110156104665761045b60008261042f565b600181019050610448565b5050565b601f8211156104ab5761047c81610341565b61048584610356565b81016020851015610494578190505b6104a86104a085610356565b830182610447565b50505b505050565b600082821c905092915050565b60006104ce600019846008026104b0565b1980831691505092915050565b60006104e783836104bd565b9150826002028217905092915050565b610500826102a7565b67ffffffffffffffff811115610519576105186102b2565b5b6105238254610310565b61052e82828561046a565b600060209050601f831160018114610561576000841561054f578287015190505b61055985826104db565b8655506105c1565b601f19841661056f86610341565b60005b8281101561059757848901518255600182019150602085019450602081019050610572565b868310156105b457848901516105b0601f8916826104bd565b8355505b6001600288020188555050505b505050505050565b6105d28161023c565b82525050565b60006020820190506105ed60008301846105c9565b92915050565b6126b9806106026000396000f3fe608060405234801561001057600080fd5b50600436106101165760003560e01c8063715018a6116100a2578063a22cb46511610071578063a22cb465146102df578063b88d4fde146102fb578063c87b56dd14610317578063e985e9c514610347578063f2fde38b1461037757610116565b8063715018a61461027d5780638da5cb5b1461028757806395d89b41146102a5578063a0bcfc7f146102c357610116565b806323b872dd116100e957806323b872dd146101b557806340d097c3146101d157806342842e0e146102015780636352211e1461021d57806370a082311461024d57610116565b806301ffc9a71461011b57806306fdde031461014b578063081812fc14610169578063095ea7b314610199575b600080fd5b61013560048036038101906101309190611b58565b610393565b6040516101429190611ba0565b60405180910390f35b6101536103a5565b6040516101609190611c4b565b60405180910390f35b610183600480360381019061017e9190611ca3565b610437565b6040516101909190611d11565b60405180910390f35b6101b360048036038101906101ae9190611d58565b610453565b005b6101cf60048036038101906101ca9190611d98565b610469565b005b6101eb60048036038101906101e69190611deb565b61056b565b6040516101f89190611e27565b60405180910390f35b61021b60048036038101906102169190611d98565b6105a7565b005b61023760048036038101906102329190611ca3565b6105c7565b6040516102449190611d11565b60405180910390f35b61026760048036038101906102629190611deb565b6105d9565b6040516102749190611e27565b60405180910390f35b610285610693565b005b61028f6106a7565b60405161029c9190611d11565b60405180910390f35b6102ad6106d1565b6040516102ba9190611c4b565b60405180910390f35b6102dd60048036038101906102d89190611ea7565b610763565b005b6102f960048036038101906102f49190611f20565b610781565b005b61031560048036038101906103109190612090565b610797565b005b610331600480360381019061032c9190611ca3565b6107bc565b60405161033e9190611c4b565b60405180910390f35b610361600480360381019061035c9190612113565b6107ce565b60405161036e9190611ba0565b60405180910390f35b610391600480360381019061038c9190611deb565b610862565b005b600061039e826108e8565b9050919050565b6060600080546103b490612182565b80601f01602080910402602001604051908101604052809291908181526020018280546103e090612182565b801561042d5780601f106104025761010080835404028352916020019161042d565b820191906000526020600020905b81548152906001019060200180831161041057829003601f168201915b5050505050905090565b600061044282610949565b5061044c826109d1565b9050919050565b6104658282610460610a0e565b610a16565b5050565b600073ffffffffffffffffffffffffffffffffffffffff168273ffffffffffffffffffffffffffffffffffffffff16036104db5760006040517f64a0ae920000000000000000000000000000000000000000000000000000000081526004016104d29190611d11565b60405180910390fd5b60006104ef83836104ea610a0e565b610a28565b90508373ffffffffffffffffffffffffffffffffffffffff168173ffffffffffffffffffffffffffffffffffffffff1614610565578382826040517f64283d7b00000000000000000000000000000000000000000000000000000000815260040161055c939291906121b3565b60405180910390fd5b50505050565b6000610575610c42565b600060085490506008600081548092919061058f90612219565b919050555061059e8382610cc9565b80915050919050565b6105c283838360405180602001604052806000815250610797565b505050565b60006105d282610949565b9050919050565b60008073ffffffffffffffffffffffffffffffffffffffff168273ffffffffffffffffffffffffffffffffffffffff160361064c5760006040517f89c62b640000000000000000000000000000000000000000000000000000000081526004016106439190611d11565b60405180910390fd5b600360008373ffffffffffffffffffffffffffffffffffffffff1673ffffffffffffffffffffffffffffffffffffffff168152602001908152602001600020549050919050565b61069b610c42565b6106a56000610ce7565b565b6000600760009054906101000a900473ffffffffffffffffffffffffffffffffffffffff16905090565b6060600180546106e090612182565b80601f016020809104026020016040519081016040528092919081815260200182805461070c90612182565b80156107595780601f1061072e57610100808354040283529160200191610759565b820191906000526020600020905b81548152906001019060200180831161073c57829003601f168201915b5050505050905090565b61076b610c42565b81816009918261077c929190612418565b505050565b61079361078c610a0e565b8383610dad565b5050565b6107a2848484610469565b6107b66107ad610a0e565b85858585610f1c565b50505050565b60606107c7826110cd565b9050919050565b6000600560008473ffffffffffffffffffffffffffffffffffffffff1673ffffffffffffffffffffffffffffffffffffffff16815260200190815260200160002060008373ffffffffffffffffffffffffffffffffffffffff1673ffffffffffffffffffffffffffffffffffffffff16815260200190815260200160002060009054906101000a900460ff16905092915050565b61086a610c42565b600073ffffffffffffffffffffffffffffffffffffffff168173ffffffffffffffffffffffffffffffffffffffff16036108dc5760006040517f1e4fbdf70000000000000000000000000000000000000000000000000000000081526004016108d39190611d11565b60405180910390fd5b6108e581610ce7565b50565b6000634906490660e01b7bffffffffffffffffffffffffffffffffffffffffffffffffffffffff1916827bffffffffffffffffffffffffffffffffffffffffffffffffffffffff191614806109425750610941826111e0565b5b9050919050565b600080610955836112c2565b9050600073ffffffffffffffffffffffffffffffffffffffff168173ffffffffffffffffffffffffffffffffffffffff16036109c857826040517f7e2732890000000000000000000000000000000000000000000000000000000081526004016109bf9190611e27565b60405180910390fd5b80915050919050565b60006004600083815260200190815260200160002060009054906101000a900473ffffffffffffffffffffffffffffffffffffffff169050919050565b600033905090565b610a2383838360016112ff565b505050565b600080610a34846112c2565b9050600073ffffffffffffffffffffffffffffffffffffffff168373ffffffffffffffffffffffffffffffffffffffff1614610a7657610a758184866114c4565b5b600073ffffffffffffffffffffffffffffffffffffffff168173ffffffffffffffffffffffffffffffffffffffff1614610b0757610ab86000856000806112ff565b6001600360008373ffffffffffffffffffffffffffffffffffffffff1673ffffffffffffffffffffffffffffffffffffffff168152602001908152602001600020600082825403925050819055505b600073ffffffffffffffffffffffffffffffffffffffff168573ffffffffffffffffffffffffffffffffffffffff1614610b8a576001600360008773ffffffffffffffffffffffffffffffffffffffff1673ffffffffffffffffffffffffffffffffffffffff168152602001908152602001600020600082825401925050819055505b846002600086815260200190815260200160002060006101000a81548173ffffffffffffffffffffffffffffffffffffffff021916908373ffffffffffffffffffffffffffffffffffffffff160217905550838573ffffffffffffffffffffffffffffffffffffffff168273ffffffffffffffffffffffffffffffffffffffff167fddf252ad1be2c89b69c2b068fc378daa952ba7f163c4a11628f55a4df523b3ef60405160405180910390a4809150509392505050565b610c4a610a0e565b73ffffffffffffffffffffffffffffffffffffffff16610c686106a7565b73ffffffffffffffffffffffffffffffffffffffff1614610cc757610c8b610a0e565b6040517f118cdaa7000000000000000000000000000000000000000000000000000000008152600401610cbe9190611d11565b60405180910390fd5b565b610ce3828260405180602001604052806000815250611588565b5050565b6000600760009054906101000a900473ffffffffffffffffffffffffffffffffffffffff16905081600760006101000a81548173ffffffffffffffffffffffffffffffffffffffff021916908373ffffffffffffffffffffffffffffffffffffffff1602179055508173ffffffffffffffffffffffffffffffffffffffff168173ffffffffffffffffffffffffffffffffffffffff167f8be0079c531659141344cd1fd0a4f28419497f9722a3daafe3b4186f6b6457e060405160405180910390a35050565b600073ffffffffffffffffffffffffffffffffffffffff168273ffffffffffffffffffffffffffffffffffffffff1603610e1e57816040517f5b08ba18000000000000000000000000000000000000000000000000000000008152600401610e159190611d11565b60405180910390fd5b80600560008573ffffffffffffffffffffffffffffffffffffffff1673ffffffffffffffffffffffffffffffffffffffff16815260200190815260200160002060008473ffffffffffffffffffffffffffffffffffffffff1673ffffffffffffffffffffffffffffffffffffffff16815260200190815260200160002060006101000a81548160ff0219169083151502179055508173ffffffffffffffffffffffffffffffffffffffff168373ffffffffffffffffffffffffffffffffffffffff167f17307eab39ab6107e8899845ad3d59bd9653f200f220920489ca2b5937696c3183604051610f0f9190611ba0565b60405180910390a3505050565b60008373ffffffffffffffffffffffffffffffffffffffff163b11156110c6578273ffffffffffffffffffffffffffffffffffffffff1663150b7a02868685856040518563ffffffff1660e01b8152600401610f7b949392919061253d565b6020604051808303816000875af1925050508015610fb757506040513d601f19601f82011682018060405250810190610fb4919061259e565b60015b61103b573d8060008114610fe7576040519150601f19603f3d011682016040523d82523d6000602084013e610fec565b606091505b50600081510361103357836040517f64a0ae9200000000000000000000000000000000000000000000000000000000815260040161102a9190611d11565b60405180910390fd5b805181602001fd5b63150b7a0260e01b7bffffffffffffffffffffffffffffffffffffffffffffffffffffffff1916817bffffffffffffffffffffffffffffffffffffffffffffffffffffffff1916146110c457836040517f64a0ae920000000000000000000000000000000000000000000000000000000081526004016110bb9190611d11565b60405180910390fd5b505b5050505050565b60606110d882610949565b5060006006600084815260200190815260200160002080546110f990612182565b80601f016020809104026020016040519081016040528092919081815260200182805461112590612182565b80156111725780601f1061114757610100808354040283529160200191611172565b820191906000526020600020905b81548152906001019060200180831161115557829003601f168201915b5050505050905060006111836115ac565b905060008151036111985781925050506111db565b6000825111156111cd5780826040516020016111b5929190612607565b604051602081830303815290604052925050506111db565b6111d68461163e565b925050505b919050565b60007f80ac58cd000000000000000000000000000000000000000000000000000000007bffffffffffffffffffffffffffffffffffffffffffffffffffffffff1916827bffffffffffffffffffffffffffffffffffffffffffffffffffffffff191614806112ab57507f5b5e139f000000000000000000000000000000000000000000000000000000007bffffffffffffffffffffffffffffffffffffffffffffffffffffffff1916827bffffffffffffffffffffffffffffffffffffffffffffffffffffffff1916145b806112bb57506112ba826116a7565b5b9050919050565b60006002600083815260200190815260200160002060009054906101000a900473ffffffffffffffffffffffffffffffffffffffff169050919050565b80806113385750600073ffffffffffffffffffffffffffffffffffffffff168273ffffffffffffffffffffffffffffffffffffffff1614155b1561146c57600061134884610949565b9050600073ffffffffffffffffffffffffffffffffffffffff168373ffffffffffffffffffffffffffffffffffffffff16141580156113b357508273ffffffffffffffffffffffffffffffffffffffff168173ffffffffffffffffffffffffffffffffffffffff1614155b80156113c657506113c481846107ce565b155b1561140857826040517fa9fbf51f0000000000000000000000000000000000000000000000000000000081526004016113ff9190611d11565b60405180910390fd5b811561146a57838573ffffffffffffffffffffffffffffffffffffffff168273ffffffffffffffffffffffffffffffffffffffff167f8c5be1e5ebec7d5bd14f71427d1e84f3dd0314c0f7b2291e5b200ac8c7c3b92560405160405180910390a45b505b836004600085815260200190815260200160002060006101000a81548173ffffffffffffffffffffffffffffffffffffffff021916908373ffffffffffffffffffffffffffffffffffffffff16021790555050505050565b6114cf838383611711565b61158357600073ffffffffffffffffffffffffffffffffffffffff168373ffffffffffffffffffffffffffffffffffffffff160361154457806040517f7e27328900000000000000000000000000000000000000000000000000000000815260040161153b9190611e27565b60405180910390fd5b81816040517f177e802f00000000000000000000000000000000000000000000000000000000815260040161157a92919061262b565b60405180910390fd5b505050565b61159283836117d2565b6115a761159d610a0e565b6000858585610f1c565b505050565b6060600980546115bb90612182565b80601f01602080910402602001604051908101604052809291908181526020018280546115e790612182565b80156116345780601f1061160957610100808354040283529160200191611634565b820191906000526020600020905b81548152906001019060200180831161161757829003601f168201915b5050505050905090565b606061164982610949565b5060006116546115ac565b90506000815111611674576040518060200160405280600081525061169f565b8061167e846118cb565b60405160200161168f929190612607565b6040516020818303038152906040525b915050919050565b60007f01ffc9a7000000000000000000000000000000000000000000000000000000007bffffffffffffffffffffffffffffffffffffffffffffffffffffffff1916827bffffffffffffffffffffffffffffffffffffffffffffffffffffffff1916149050919050565b60008073ffffffffffffffffffffffffffffffffffffffff168373ffffffffffffffffffffffffffffffffffffffff16141580156117c957508273ffffffffffffffffffffffffffffffffffffffff168473ffffffffffffffffffffffffffffffffffffffff16148061178a575061178984846107ce565b5b806117c857508273ffffffffffffffffffffffffffffffffffffffff166117b0836109d1565b73ffffffffffffffffffffffffffffffffffffffff16145b5b90509392505050565b600073ffffffffffffffffffffffffffffffffffffffff168273ffffffffffffffffffffffffffffffffffffffff16036118445760006040517f64a0ae9200000000000000000000000000000000000000000000000000000000815260040161183b9190611d11565b60405180910390fd5b600061185283836000610a28565b9050600073ffffffffffffffffffffffffffffffffffffffff168173ffffffffffffffffffffffffffffffffffffffff16146118c65760006040517f73c6ac6e0000000000000000000000000000000000000000000000000000000081526004016118bd9190611d11565b60405180910390fd5b505050565b6060600060016118da84611999565b01905060008167ffffffffffffffff8111156118f9576118f8611f65565b5b6040519080825280601f01601f19166020018201604052801561192b5781602001600182028036833780820191505090505b509050600082602001820190505b60011561198e578080600190039150507f3031323334353637383961626364656600000000000000000000000000000000600a86061a8153600a858161198257611981612654565b5b04945060008503611939575b819350505050919050565b600080600090507a184f03e93ff9f4daa797ed6e38ed64bf6a1f01000000000000000083106119f7577a184f03e93ff9f4daa797ed6e38ed64bf6a1f01000000000000000083816119ed576119ec612654565b5b0492506040810190505b6d04ee2d6d415b85acef81000000008310611a34576d04ee2d6d415b85acef81000000008381611a2a57611a29612654565b5b0492506020810190505b662386f26fc100008310611a6357662386f26fc100008381611a5957611a58612654565b5b0492506010810190505b6305f5e1008310611a8c576305f5e1008381611a8257611a81612654565b5b0492506008810190505b6127108310611ab1576127108381611aa757611aa6612654565b5b0492506004810190505b60648310611ad45760648381611aca57611ac9612654565b5b0492506002810190505b600a8310611ae3576001810190505b80915050919050565b6000604051905090565b600080fd5b600080fd5b60007fffffffff0000000000000000000000000000000000000000000000000000000082169050919050565b611b3581611b00565b8114611b4057600080fd5b50565b600081359050611b5281611b2c565b92915050565b600060208284031215611b6e57611b6d611af6565b5b6000611b7c84828501611b43565b91505092915050565b60008115159050919050565b611b9a81611b85565b82525050565b6000602082019050611bb56000830184611b91565b92915050565b600081519050919050565b600082825260208201905092915050565b60005b83811015611bf5578082015181840152602081019050611bda565b60008484015250505050565b6000601f19601f8301169050919050565b6000611c1d82611bbb565b611c278185611bc6565b9350611c37818560208601611bd7565b611c4081611c01565b840191505092915050565b60006020820190508181036000830152611c658184611c12565b905092915050565b6000819050919050565b611c8081611c6d565b8114611c8b57600080fd5b50565b600081359050611c9d81611c77565b92915050565b600060208284031215611cb957611cb8611af6565b5b6000611cc784828501611c8e565b91505092915050565b600073ffffffffffffffffffffffffffffffffffffffff82169050919050565b6000611cfb82611cd0565b9050919050565b611d0b81611cf0565b82525050565b6000602082019050611d266000830184611d02565b92915050565b611d3581611cf0565b8114611d4057600080fd5b50565b600081359050611d5281611d2c565b92915050565b60008060408385031215611d6f57611d6e611af6565b5b6000611d7d85828601611d43565b9250506020611d8e85828601611c8e565b9150509250929050565b600080600060608486031215611db157611db0611af6565b5b6000611dbf86828701611d43565b9350506020611dd086828701611d43565b9250506040611de186828701611c8e565b9150509250925092565b600060208284031215611e0157611e00611af6565b5b6000611e0f84828501611d43565b91505092915050565b611e2181611c6d565b82525050565b6000602082019050611e3c6000830184611e18565b92915050565b600080fd5b600080fd5b600080fd5b60008083601f840112611e6757611e66611e42565b5b8235905067ffffffffffffffff811115611e8457611e83611e47565b5b602083019150836001820283011115611ea057611e9f611e4c565b5b9250929050565b60008060208385031215611ebe57611ebd611af6565b5b600083013567ffffffffffffffff811115611edc57611edb611afb565b5b611ee885828601611e51565b92509250509250929050565b611efd81611b85565b8114611f0857600080fd5b50565b600081359050611f1a81611ef4565b92915050565b60008060408385031215611f3757611f36611af6565b5b6000611f4585828601611d43565b9250506020611f5685828601611f0b565b9150509250929050565b600080fd5b7f4e487b7100000000000000000000000000000000000000000000000000000000600052604160045260246000fd5b611f9d82611c01565b810181811067ffffffffffffffff82111715611fbc57611fbb611f65565b5b80604052505050565b6000611fcf611aec565b9050611fdb8282611f94565b919050565b600067ffffffffffffffff821115611ffb57611ffa611f65565b5b61200482611c01565b9050602081019050919050565b82818337600083830152505050565b600061203361202e84611fe0565b611fc5565b90508281526020810184848401111561204f5761204e611f60565b5b61205a848285612011565b509392505050565b600082601f83011261207757612076611e42565b5b8135612087848260208601612020565b91505092915050565b600080600080608085870312156120aa576120a9611af6565b5b60006120b887828801611d43565b94505060206120c987828801611d43565b93505060406120da87828801611c8e565b925050606085013567ffffffffffffffff8111156120fb576120fa611afb565b5b61210787828801612062565b91505092959194509250565b6000806040838503121561212a57612129611af6565b5b600061213885828601611d43565b925050602061214985828601611d43565b9150509250929050565b7f4e487b7100000000000000000000000000000000000000000000000000000000600052602260045260246000fd5b6000600282049050600182168061219a57607f821691505b6020821081036121ad576121ac612153565b5b50919050565b60006060820190506121c86000830186611d02565b6121d56020830185611e18565b6121e26040830184611d02565b949350505050565b7f4e487b7100000000000000000000000000000000000000000000000000000000600052601160045260246000fd5b600061222482611c6d565b91507fffffffffffffffffffffffffffffffffffffffffffffffffffffffffffffffff8203612256576122556121ea565b5b600182019050919050565b600082905092915050565b60008190508160005260206000209050919050565b60006020601f8301049050919050565b600082821b905092915050565b6000600883026122ce7fffffffffffffffffffffffffffffffffffffffffffffffffffffffffffffffff82612291565b6122d88683612291565b95508019841693508086168417925050509392505050565b6000819050919050565b600061231561231061230b84611c6d565b6122f0565b611c6d565b9050919050565b6000819050919050565b61232f836122fa565b61234361233b8261231c565b84845461229e565b825550505050565b600090565b61235861234b565b612363818484612326565b505050565b5b818110156123875761237c600082612350565b600181019050612369565b5050565b601f8211156123cc5761239d8161226c565b6123a684612281565b810160208510156123b5578190505b6123c96123c185612281565b830182612368565b50505b505050565b600082821c905092915050565b60006123ef600019846008026123d1565b1980831691505092915050565b600061240883836123de565b9150826002028217905092915050565b6124228383612261565b67ffffffffffffffff81111561243b5761243a611f65565b5b6124458254612182565b61245082828561238b565b6000601f83116001811461247f576000841561246d578287013590505b61247785826123fc565b8655506124df565b601f19841661248d8661226c565b60005b828110156124b557848901358255600182019150602085019450602081019050612490565b868310156124d257848901356124ce601f8916826123de565b8355505b6001600288020188555050505b50505050505050565b600081519050919050565b600082825260208201905092915050565b600061250f826124e8565b61251981856124f3565b9350612529818560208601611bd7565b61253281611c01565b840191505092915050565b60006080820190506125526000830187611d02565b61255f6020830186611d02565b61256c6040830185611e18565b818103606083015261257e8184612504565b905095945050505050565b60008151905061259881611b2c565b92915050565b6000602082840312156125b4576125b3611af6565b5b60006125c284828501612589565b91505092915050565b600081905092915050565b60006125e182611bbb565b6125eb81856125cb565b93506125fb818560208601611bd7565b80840191505092915050565b600061261382856125d6565b915061261f82846125d6565b91508190509392505050565b60006040820190506126406000830185611d02565b61264d6020830184611e18565b9392505050565b7f4e487b7100000000000000000000000000000000000000000000000000000000600052601260045260246000fdfea2646970667358221220d42859d2b4b04da0fd52a61b39861b8fb6cd23b6d5a0e7d14612eb9ebb3d587f64736f6c634300081b0033",
  "linkReferences": {},
  "deployedLinkReferences": {}
}